{
  "contractName": "MultiRaffle",
  "abi": [
    {
      "inputs": [
        {
          "internalType": "address",
          "name": "_owner",
          "type": "address"
        },
        {
          "internalType": "address",
          "name": "_houseAccount",
          "type": "address"
        },
        {
          "internalType": "address",
          "name": "vrfCoordinator",
          "type": "address"
        },
        {
          "internalType": "uint64",
          "name": "_subscriptionId",
          "type": "uint64"
        },
        {
          "internalType": "bytes32",
          "name": "_keyHash",
          "type": "bytes32"
        }
      ],
      "stateMutability": "nonpayable",
      "type": "constructor"
    },
    {
      "inputs": [
        {
          "internalType": "address",
          "name": "have",
          "type": "address"
        },
        {
          "internalType": "address",
          "name": "want",
          "type": "address"
        }
      ],
      "name": "OnlyCoordinatorCanFulfill",
      "type": "error"
    },
    {
      "anonymous": false,
      "inputs": [
        {
          "indexed": true,
          "internalType": "address",
          "name": "owner",
          "type": "address"
        },
        {
          "indexed": true,
          "internalType": "address",
          "name": "approved",
          "type": "address"
        },
        {
          "indexed": true,
          "internalType": "uint256",
          "name": "tokenId",
          "type": "uint256"
        }
      ],
      "name": "Approval",
      "type": "event"
    },
    {
      "anonymous": false,
      "inputs": [
        {
          "indexed": true,
          "internalType": "address",
          "name": "owner",
          "type": "address"
        },
        {
          "indexed": true,
          "internalType": "address",
          "name": "operator",
          "type": "address"
        },
        {
          "indexed": false,
          "internalType": "bool",
          "name": "approved",
          "type": "bool"
        }
      ],
      "name": "ApprovalForAll",
      "type": "event"
    },
    {
      "anonymous": false,
      "inputs": [
        {
          "indexed": true,
          "internalType": "address",
          "name": "previousOwner",
          "type": "address"
        },
        {
          "indexed": true,
          "internalType": "address",
          "name": "newOwner",
          "type": "address"
        }
      ],
      "name": "OwnershipTransferred",
      "type": "event"
    },
    {
      "anonymous": false,
      "inputs": [
        {
          "indexed": true,
          "internalType": "uint256",
          "name": "raffleId",
          "type": "uint256"
        },
        {
          "indexed": false,
          "internalType": "string",
          "name": "name",
          "type": "string"
        }
      ],
      "name": "RaffleCreated",
      "type": "event"
    },
    {
      "anonymous": false,
      "inputs": [
        {
          "indexed": true,
          "internalType": "uint256",
          "name": "raffleId",
          "type": "uint256"
        }
      ],
      "name": "RaffleEnded",
      "type": "event"
    },
    {
      "anonymous": false,
      "inputs": [
        {
          "indexed": true,
          "internalType": "uint256",
          "name": "raffleId",
          "type": "uint256"
        },
        {
          "indexed": true,
          "internalType": "address",
          "name": "buyer",
          "type": "address"
        },
        {
          "indexed": false,
          "internalType": "uint256",
          "name": "ticketNumber",
          "type": "uint256"
        },
        {
          "indexed": false,
          "internalType": "uint256",
          "name": "tokenId",
          "type": "uint256"
        }
      ],
      "name": "TicketPurchased",
      "type": "event"
    },
    {
      "anonymous": false,
      "inputs": [
        {
          "indexed": true,
          "internalType": "address",
          "name": "from",
          "type": "address"
        },
        {
          "indexed": true,
          "internalType": "address",
          "name": "to",
          "type": "address"
        },
        {
          "indexed": true,
          "internalType": "uint256",
          "name": "tokenId",
          "type": "uint256"
        }
      ],
      "name": "Transfer",
      "type": "event"
    },
    {
      "anonymous": false,
      "inputs": [
        {
          "indexed": true,
          "internalType": "uint256",
          "name": "raffleId",
          "type": "uint256"
        },
        {
          "indexed": false,
          "internalType": "uint256",
          "name": "winningTicket",
          "type": "uint256"
        },
        {
          "indexed": false,
          "internalType": "address",
          "name": "winner",
          "type": "address"
        },
        {
          "indexed": false,
          "internalType": "uint256",
          "name": "prize",
          "type": "uint256"
        }
      ],
      "name": "WinnerSelected",
      "type": "event"
    },
    {
      "inputs": [],
      "name": "COORDINATOR",
      "outputs": [
        {
          "internalType": "contract VRFCoordinatorV2Interface",
          "name": "",
          "type": "address"
        }
      ],
      "stateMutability": "view",
      "type": "function",
      "constant": true
    },
    {
      "inputs": [
        {
          "internalType": "address",
          "name": "to",
          "type": "address"
        },
        {
          "internalType": "uint256",
          "name": "tokenId",
          "type": "uint256"
        }
      ],
      "name": "approve",
      "outputs": [],
      "stateMutability": "nonpayable",
      "type": "function"
    },
    {
      "inputs": [
        {
          "internalType": "address",
          "name": "owner",
          "type": "address"
        }
      ],
      "name": "balanceOf",
      "outputs": [
        {
          "internalType": "uint256",
          "name": "",
          "type": "uint256"
        }
      ],
      "stateMutability": "view",
      "type": "function",
      "constant": true
    },
    {
      "inputs": [],
      "name": "callbackGasLimit",
      "outputs": [
        {
          "internalType": "uint32",
          "name": "",
          "type": "uint32"
        }
      ],
      "stateMutability": "view",
      "type": "function",
      "constant": true
    },
    {
      "inputs": [],
      "name": "factory",
      "outputs": [
        {
          "internalType": "address",
          "name": "",
          "type": "address"
        }
      ],
      "stateMutability": "view",
      "type": "function",
      "constant": true
    },
    {
      "inputs": [
        {
          "internalType": "uint256",
          "name": "tokenId",
          "type": "uint256"
        }
      ],
      "name": "getApproved",
      "outputs": [
        {
          "internalType": "address",
          "name": "",
          "type": "address"
        }
      ],
      "stateMutability": "view",
      "type": "function",
      "constant": true
    },
    {
      "inputs": [],
      "name": "houseAccount",
      "outputs": [
        {
          "internalType": "address",
          "name": "",
          "type": "address"
        }
      ],
      "stateMutability": "view",
      "type": "function",
      "constant": true
    },
    {
      "inputs": [
        {
          "internalType": "address",
          "name": "owner",
          "type": "address"
        },
        {
          "internalType": "address",
          "name": "operator",
          "type": "address"
        }
      ],
      "name": "isApprovedForAll",
      "outputs": [
        {
          "internalType": "bool",
          "name": "",
          "type": "bool"
        }
      ],
      "stateMutability": "view",
      "type": "function",
      "constant": true
    },
    {
      "inputs": [],
      "name": "keyHash",
      "outputs": [
        {
          "internalType": "bytes32",
          "name": "",
          "type": "bytes32"
        }
      ],
      "stateMutability": "view",
      "type": "function",
      "constant": true
    },
    {
      "inputs": [],
      "name": "name",
      "outputs": [
        {
          "internalType": "string",
          "name": "",
          "type": "string"
        }
      ],
      "stateMutability": "view",
      "type": "function",
      "constant": true
    },
    {
      "inputs": [],
      "name": "nextTokenId",
      "outputs": [
        {
          "internalType": "uint256",
          "name": "",
          "type": "uint256"
        }
      ],
      "stateMutability": "view",
      "type": "function",
      "constant": true
    },
    {
      "inputs": [],
      "name": "numWords",
      "outputs": [
        {
          "internalType": "uint32",
          "name": "",
          "type": "uint32"
        }
      ],
      "stateMutability": "view",
      "type": "function",
      "constant": true
    },
    {
      "inputs": [],
      "name": "owner",
      "outputs": [
        {
          "internalType": "address",
          "name": "",
          "type": "address"
        }
      ],
      "stateMutability": "view",
      "type": "function",
      "constant": true
    },
    {
      "inputs": [
        {
          "internalType": "uint256",
          "name": "tokenId",
          "type": "uint256"
        }
      ],
      "name": "ownerOf",
      "outputs": [
        {
          "internalType": "address",
          "name": "",
          "type": "address"
        }
      ],
      "stateMutability": "view",
      "type": "function",
      "constant": true
    },
    {
      "inputs": [
        {
          "internalType": "uint256",
          "name": "",
          "type": "uint256"
        },
        {
          "internalType": "uint256",
          "name": "",
          "type": "uint256"
        }
      ],
      "name": "raffleTicketId",
      "outputs": [
        {
          "internalType": "uint256",
          "name": "",
          "type": "uint256"
        }
      ],
      "stateMutability": "view",
      "type": "function",
      "constant": true
    },
    {
      "inputs": [
        {
          "internalType": "uint256",
          "name": "",
          "type": "uint256"
        }
      ],
      "name": "raffleTicketInfo",
      "outputs": [
        {
          "internalType": "uint256",
          "name": "raffleId",
          "type": "uint256"
        },
        {
          "internalType": "uint256",
          "name": "ticketNumber",
          "type": "uint256"
        }
      ],
      "stateMutability": "view",
      "type": "function",
      "constant": true
    },
    {
      "inputs": [
        {
          "internalType": "uint256",
          "name": "",
          "type": "uint256"
        }
      ],
      "name": "raffles",
      "outputs": [
        {
          "internalType": "string",
          "name": "raffleName",
          "type": "string"
        },
        {
          "internalType": "string",
          "name": "raffleImage",
          "type": "string"
        },
        {
          "internalType": "string",
          "name": "raffleDescription",
          "type": "string"
        },
        {
          "internalType": "uint256",
          "name": "ticketSize",
          "type": "uint256"
        },
        {
          "internalType": "uint256",
          "name": "numberRange",
          "type": "uint256"
        },
        {
          "internalType": "uint256",
          "name": "houseTake",
          "type": "uint256"
        },
        {
          "internalType": "uint256",
          "name": "raffleDeadline",
          "type": "uint256"
        },
        {
          "internalType": "uint256",
          "name": "treasuryBalance",
          "type": "uint256"
        },
        {
          "internalType": "uint256",
          "name": "remainingPrizePool",
          "type": "uint256"
        },
        {
          "internalType": "bool",
          "name": "raffleEnded",
          "type": "bool"
        },
        {
          "internalType": "uint256",
          "name": "lastDrawTime",
          "type": "uint256"
        },
        {
          "internalType": "uint256",
          "name": "ticketsSoldCount",
          "type": "uint256"
        },
        {
          "internalType": "bool",
          "name": "winnerPicked",
          "type": "bool"
        },
        {
          "internalType": "uint256",
          "name": "winningTicketNumber",
          "type": "uint256"
        },
        {
          "internalType": "address",
          "name": "winnerAddress",
          "type": "address"
        }
      ],
      "stateMutability": "view",
      "type": "function",
      "constant": true
    },
    {
      "inputs": [
        {
          "internalType": "uint256",
          "name": "requestId",
          "type": "uint256"
        },
        {
          "internalType": "uint256[]",
          "name": "randomWords",
          "type": "uint256[]"
        }
      ],
      "name": "rawFulfillRandomWords",
      "outputs": [],
      "stateMutability": "nonpayable",
      "type": "function"
    },
    {
      "inputs": [],
      "name": "renounceOwnership",
      "outputs": [],
      "stateMutability": "nonpayable",
      "type": "function"
    },
    {
      "inputs": [],
      "name": "requestConfirmations",
      "outputs": [
        {
          "internalType": "uint16",
          "name": "",
          "type": "uint16"
        }
      ],
      "stateMutability": "view",
      "type": "function",
      "constant": true
    },
    {
      "inputs": [
        {
          "internalType": "uint256",
          "name": "",
          "type": "uint256"
        }
      ],
      "name": "requestIdToRaffleId",
      "outputs": [
        {
          "internalType": "uint256",
          "name": "",
          "type": "uint256"
        }
      ],
      "stateMutability": "view",
      "type": "function",
      "constant": true
    },
    {
      "inputs": [
        {
          "internalType": "address",
          "name": "from",
          "type": "address"
        },
        {
          "internalType": "address",
          "name": "to",
          "type": "address"
        },
        {
          "internalType": "uint256",
          "name": "tokenId",
          "type": "uint256"
        }
      ],
      "name": "safeTransferFrom",
      "outputs": [],
      "stateMutability": "nonpayable",
      "type": "function"
    },
    {
      "inputs": [
        {
          "internalType": "address",
          "name": "from",
          "type": "address"
        },
        {
          "internalType": "address",
          "name": "to",
          "type": "address"
        },
        {
          "internalType": "uint256",
          "name": "tokenId",
          "type": "uint256"
        },
        {
          "internalType": "bytes",
          "name": "data",
          "type": "bytes"
        }
      ],
      "name": "safeTransferFrom",
      "outputs": [],
      "stateMutability": "nonpayable",
      "type": "function"
    },
    {
      "inputs": [
        {
          "internalType": "address",
          "name": "operator",
          "type": "address"
        },
        {
          "internalType": "bool",
          "name": "approved",
          "type": "bool"
        }
      ],
      "name": "setApprovalForAll",
      "outputs": [],
      "stateMutability": "nonpayable",
      "type": "function"
    },
    {
      "inputs": [
        {
          "internalType": "uint256",
          "name": "",
          "type": "uint256"
        },
        {
          "internalType": "uint256",
          "name": "",
          "type": "uint256"
        }
      ],
      "name": "soldTickets",
      "outputs": [
        {
          "internalType": "uint256",
          "name": "",
          "type": "uint256"
        }
      ],
      "stateMutability": "view",
      "type": "function",
      "constant": true
    },
    {
      "inputs": [],
      "name": "subscriptionId",
      "outputs": [
        {
          "internalType": "uint64",
          "name": "",
          "type": "uint64"
        }
      ],
      "stateMutability": "view",
      "type": "function",
      "constant": true
    },
    {
      "inputs": [
        {
          "internalType": "bytes4",
          "name": "interfaceId",
          "type": "bytes4"
        }
      ],
      "name": "supportsInterface",
      "outputs": [
        {
          "internalType": "bool",
          "name": "",
          "type": "bool"
        }
      ],
      "stateMutability": "view",
      "type": "function",
      "constant": true
    },
    {
      "inputs": [],
      "name": "symbol",
      "outputs": [
        {
          "internalType": "string",
          "name": "",
          "type": "string"
        }
      ],
      "stateMutability": "view",
      "type": "function",
      "constant": true
    },
    {
      "inputs": [
        {
          "internalType": "uint256",
          "name": "index",
          "type": "uint256"
        }
      ],
      "name": "tokenByIndex",
      "outputs": [
        {
          "internalType": "uint256",
          "name": "",
          "type": "uint256"
        }
      ],
      "stateMutability": "view",
      "type": "function",
      "constant": true
    },
    {
      "inputs": [
        {
          "internalType": "address",
          "name": "owner",
          "type": "address"
        },
        {
          "internalType": "uint256",
          "name": "index",
          "type": "uint256"
        }
      ],
      "name": "tokenOfOwnerByIndex",
      "outputs": [
        {
          "internalType": "uint256",
          "name": "",
          "type": "uint256"
        }
      ],
      "stateMutability": "view",
      "type": "function",
      "constant": true
    },
    {
      "inputs": [
        {
          "internalType": "uint256",
          "name": "tokenId",
          "type": "uint256"
        }
      ],
      "name": "tokenURI",
      "outputs": [
        {
          "internalType": "string",
          "name": "",
          "type": "string"
        }
      ],
      "stateMutability": "view",
      "type": "function",
      "constant": true
    },
    {
      "inputs": [],
      "name": "totalSupply",
      "outputs": [
        {
          "internalType": "uint256",
          "name": "",
          "type": "uint256"
        }
      ],
      "stateMutability": "view",
      "type": "function",
      "constant": true
    },
    {
      "inputs": [
        {
          "internalType": "address",
          "name": "from",
          "type": "address"
        },
        {
          "internalType": "address",
          "name": "to",
          "type": "address"
        },
        {
          "internalType": "uint256",
          "name": "tokenId",
          "type": "uint256"
        }
      ],
      "name": "transferFrom",
      "outputs": [],
      "stateMutability": "nonpayable",
      "type": "function"
    },
    {
      "inputs": [
        {
          "internalType": "address",
          "name": "newOwner",
          "type": "address"
        }
      ],
      "name": "transferOwnership",
      "outputs": [],
      "stateMutability": "nonpayable",
      "type": "function"
    },
    {
      "stateMutability": "payable",
      "type": "receive",
      "payable": true
    },
    {
      "inputs": [
        {
          "internalType": "address",
          "name": "_factory",
          "type": "address"
        }
      ],
      "name": "setFactory",
      "outputs": [],
      "stateMutability": "nonpayable",
      "type": "function"
    },
    {
      "inputs": [
        {
          "components": [
            {
              "internalType": "uint256",
              "name": "ticketSize",
              "type": "uint256"
            },
            {
              "internalType": "uint256",
              "name": "numberRange",
              "type": "uint256"
            },
            {
              "internalType": "uint256",
              "name": "houseTake",
              "type": "uint256"
            },
            {
              "internalType": "uint256",
              "name": "raffleDuration",
              "type": "uint256"
            }
          ],
          "internalType": "struct MultiRaffle.RaffleSettings",
          "name": "_settings",
          "type": "tuple"
        },
        {
          "internalType": "string",
          "name": "_raffleName",
          "type": "string"
        },
        {
          "internalType": "string",
          "name": "_raffleImage",
          "type": "string"
        },
        {
          "internalType": "string",
          "name": "_raffleDescription",
          "type": "string"
        }
      ],
      "name": "createRaffle",
      "outputs": [
        {
          "internalType": "uint256",
          "name": "raffleId",
          "type": "uint256"
        }
      ],
      "stateMutability": "nonpayable",
      "type": "function"
    },
    {
      "inputs": [
        {
          "internalType": "uint256",
          "name": "raffleId",
          "type": "uint256"
        },
        {
          "internalType": "uint256",
          "name": "ticketNumber",
          "type": "uint256"
        }
      ],
      "name": "buyTicket",
      "outputs": [],
      "stateMutability": "payable",
      "type": "function",
      "payable": true
    },
    {
      "inputs": [
        {
          "internalType": "uint256",
          "name": "raffleId",
          "type": "uint256"
        }
      ],
      "name": "requestRandomNumber",
      "outputs": [],
      "stateMutability": "nonpayable",
      "type": "function"
    },
    {
      "inputs": [
        {
          "internalType": "uint256",
          "name": "raffleId",
          "type": "uint256"
        }
      ],
      "name": "getRaffleData",
      "outputs": [
        {
          "internalType": "string",
          "name": "nameOfRaffle",
          "type": "string"
        },
        {
          "internalType": "string",
          "name": "raffleImg",
          "type": "string"
        },
        {
          "internalType": "string",
          "name": "raffleDesc",
          "type": "string"
        },
        {
          "internalType": "uint256",
          "name": "ticketsSold",
          "type": "uint256"
        },
        {
          "internalType": "uint256",
          "name": "currentPrize",
          "type": "uint256"
        },
        {
          "internalType": "uint256",
          "name": "timeLeft",
          "type": "uint256"
        },
        {
          "internalType": "bool",
          "name": "ended",
          "type": "bool"
        },
        {
          "internalType": "bool",
          "name": "winnerPicked",
          "type": "bool"
        },
        {
          "internalType": "uint256",
          "name": "winningTicketNumber",
          "type": "uint256"
        },
        {
          "internalType": "address",
          "name": "winner",
          "type": "address"
        }
      ],
      "stateMutability": "view",
      "type": "function",
      "constant": true
    },
    {
      "inputs": [],
      "name": "getRafflesLength",
      "outputs": [
        {
          "internalType": "uint256",
          "name": "",
          "type": "uint256"
        }
      ],
      "stateMutability": "view",
      "type": "function",
      "constant": true
    },
    {
      "inputs": [
        {
          "internalType": "uint256",
          "name": "raffleId",
          "type": "uint256"
        }
      ],
      "name": "withdrawHouseBalance",
      "outputs": [],
      "stateMutability": "nonpayable",
      "type": "function"
    },
    {
      "inputs": [
        {
          "internalType": "address",
          "name": "newHouseAccount",
          "type": "address"
        }
      ],
      "name": "updateHouseAccount",
      "outputs": [],
      "stateMutability": "nonpayable",
      "type": "function"
    },
    {
      "inputs": [
        {
          "internalType": "uint64",
          "name": "_subscriptionId",
          "type": "uint64"
        },
        {
          "internalType": "bytes32",
          "name": "_keyHash",
          "type": "bytes32"
        },
        {
          "internalType": "uint32",
          "name": "_callbackGasLimit",
          "type": "uint32"
        },
        {
          "internalType": "uint16",
          "name": "_requestConfirmations",
          "type": "uint16"
        },
        {
          "internalType": "uint32",
          "name": "_numWords",
          "type": "uint32"
        }
      ],
      "name": "updateVRFConfig",
      "outputs": [],
      "stateMutability": "nonpayable",
      "type": "function"
    },
    {
      "inputs": [],
      "name": "withdrawStuckETH",
      "outputs": [],
      "stateMutability": "nonpayable",
      "type": "function"
    }
  ],
  "bytecode": "0x60a0346200046057601f6200326838819003918201601f19168301916001600160401b03831184841017620003755780849260a09460405283398101031262000460576200004d8162000485565b6020916200005d83820162000485565b906200006c6040820162000485565b606082015190916001600160401b0382168203620004605760800151926200009362000465565b6011815270135d5b1d1a549859999b19551a58dad95d607a1b87820152620000ba62000465565b60048152631354919560e21b88820152815190916001600160401b038211620003755760005490600182811c9216801562000455575b8a831014620003545781601f84931162000402575b508990601f831160011462000397576000926200038b575b50508160011b916000199060031b1c1916176000555b8051906001600160401b038211620003755760015490600182811c921680156200036a575b89831014620003545781601f849311620002fd575b508890601f8311600114620002905760009262000284575b50508160011b916000199060031b1c1916176001555b620001a6336200049a565b6001600b556080839052601480546001600160501b03191666010003000186a01790556001600160a01b0390811680156200023f57601180546001600160a01b031916919091179055601280546001600160e01b031916919093161760a09190911b600160a01b600160e01b03161790556013556200022691506200049a565b604051612d849081620004e4823960805181611c180152f35b60405162461bcd60e51b815260048101889052601460248201527f496e76616c696420686f7573654163636f756e740000000000000000000000006044820152606490fd5b01519050388062000185565b600160009081528a81209350601f198516905b8b828210620002e6575050908460019594939210620002cc575b505050811b016001556200019b565b015160001960f88460031b161c19169055388080620002bd565b6001859682939686015181550195019301620002a3565b909150600160005288600020601f840160051c8101918a851062000349575b90601f859493920160051c01905b8181106200033957506200016d565b600081558493506001016200032a565b90915081906200031c565b634e487b7160e01b600052602260045260246000fd5b91607f169162000158565b634e487b7160e01b600052604160045260246000fd5b0151905038806200011d565b60008080528b81209350601f198516905b8c828210620003eb575050908460019594939210620003d1575b505050811b0160005562000133565b015160001960f88460031b161c19169055388080620003c2565b6001859682939686015181550195019301620003a8565b9091506000805289600020601f840160051c81018b85106200044d575b90849392915b601f830160051c820181106200043d57505062000105565b6000815585945060010162000425565b50806200041f565b91607f1691620000f0565b600080fd5b60408051919082016001600160401b038111838210176200037557604052565b51906001600160a01b03821682036200046057565b600a80546001600160a01b039283166001600160a01b0319821681179092559091167f8be0079c531659141344cd1fd0a4f28419497f9722a3daafe3b4186f6b6457e0600080a356fe6080604052600436101561001b575b361561001957600080fd5b005b60003560e01c806214cdd514611fbf57806301ffc9a714611f3757806306fdde0314611e9457806307d9803314611e61578063081812fc14611e43578063095ea7b314611cc957806309c1ba2e14611c9f57806318160ddd14611c815780631fe543e314611ba457806323b872dd14611b8057806324f7469714611b5c578063298ec208146117635780632f745c59146116b15780633b2bcbf1146116885780633fd591491461158b57806342842e0e14611558578063463118ce1461152f5780634f6ccce7146114ac5780635bb478081461142d5780635d4bc0ce1461130757806361728f39146112e95780636352211e146112b957806370a082311461128e578063715018a61461123157806375794a3c146112135780637ccfd7fc146111ec5780637d8c1eb1146111ad5780638a41d3e3146111815780638aef9833146110c25780638ce3afa7146110a45780638da5cb5b1461107b57806395d89b4114610f9c5780639669376d14610868578063a22cb4651461078d578063b0fb162f14610769578063b1eb96c9146105ba578063b753937514610585578063b88d4fde14610500578063c45a0155146104d7578063c87b56dd14610466578063dd82e63d146103e7578063e985e9c514610391578063f2fde38b146102cd5763f5648a4f0361000e57346102c85760003660031901126102c85761021c6123cc565b610224612b18565b47801561028e57600a546000918291829182916001600160a01b03165af161024a6128f9565b5015610257576001600b55005b60405162461bcd60e51b815260206004820152600f60248201526e151c985b9cd9995c8819985a5b1959608a1b6044820152606490fd5b60405162461bcd60e51b81526020600482015260126024820152714e6f2045544820746f20776974686472617760701b6044820152606490fd5b600080fd5b346102c85760203660031901126102c8576102e661213f565b6102ee6123cc565b6001600160a01b0390811690811561033d57600a54826001600160601b0360a01b821617600a55167f8be0079c531659141344cd1fd0a4f28419497f9722a3daafe3b4186f6b6457e0600080a3005b60405162461bcd60e51b815260206004820152602660248201527f4f776e61626c653a206e6577206f776e657220697320746865207a65726f206160448201526564647265737360d01b6064820152608490fd5b346102c85760403660031901126102c8576103aa61213f565b6103b2612155565b9060018060a01b03809116600052600560205260406000209116600052602052602060ff604060002054166040519015158152f35b346102c85760203660031901126102c85761040061213f565b6104086123cc565b6001600160a01b0316801561042f576001600160601b0360a01b6011541617601155600080f35b60405162461bcd60e51b815260206004820152600f60248201526e496e76616c6964206164647265737360881b6044820152606490fd5b346102c85760203660031901126102c85760043560009081526002602052604090205461049d906001600160a01b0316151561249b565b60006040516104ab8161216b565b526104d36040516104bb8161216b565b600081526040519182916020835260208301906120e9565b0390f35b346102c85760003660031901126102c8576016546040516001600160a01b039091168152602090f35b346102c85760803660031901126102c85761051961213f565b610521612155565b90606435906044356001600160401b0383116102c857366023840112156102c8576100199361055d610580943690602481600401359101612377565b9261057061056b8433612621565b612548565b61057b8383836126e9565b612a21565b6125fd565b346102c85760203660031901126102c857600435600052600f6020526040806000206001815491015482519182526020820152f35b346102c8576020806003193601126102c857600435906105d86123cc565b6105e1826121dc565b5060098101908154906105f760ff831615612adc565b600681015442111561073057600b0154156106f95760ff1916600117905560405190827fea9b3e286c888f91dfb0567aead086fe3c33239ddee154b7064f3043760cf053600080a2808260a4816000601254601354601454906305d3b1d360e41b855260048501526001600160401b038260a01c16602485015261ffff81881c16604485015263ffffffff90818116606486015260301c16608484015260018060a01b03165af180156106ed576000906106bf575b6015925060005252604060002055600080f35b508082813d83116106e6575b6106d58183612186565b810103126102c857601591516106ac565b503d6106cb565b6040513d6000823e3d90fd5b60405162461bcd60e51b815260048101849052600f60248201526e139bc81d1a58dad95d1cc81cdbdb19608a1b6044820152606490fd5b60405162461bcd60e51b81526004810185905260116024820152704e6f74207061737420646561646c696e6560781b6044820152606490fd5b346102c85760003660031901126102c857602060145461ffff60405191831c168152f35b346102c85760403660031901126102c8576107a661213f565b60243590811515908183036102c8576001600160a01b031691338314610823576107f59033600052600560205260406000208460005260205260406000209060ff801983541691151516179055565b6040519081527f17307eab39ab6107e8899845ad3d59bd9653f200f220920489ca2b5937696c3160203392a3005b60405162461bcd60e51b815260206004820152601960248201527f4552433732313a20617070726f766520746f2063616c6c6572000000000000006044820152606490fd5b346102c857366003190160e081126102c8576080136102c857604051608081018181106001600160401b03821117610d2f57604052600435815260243560208201526044356040820152606490813560608201526084356001600160401b0381116102c8576108db9036906004016123ae565b9160a4356001600160401b0381116102c8576108fb9036906004016123ae565b9060c4356001600160401b0381116102c85761091b9036906004016123ae565b6016549091906001600160a01b03163303610f6b5780604085015111610f3657835115610f0457602084015115610ed25750604051926101e08401918483106001600160401b03841117610d2f576109fc9360609360405260008487015260006080870152600060a0870152600060c0870152600060e08701526000610100870152600061012087015260006101408701526000610160870152600061018087015260006101a087015260006101c08701528686526020860152604085015280518285015260208101516080850152604081015160a0850152015142612acf565b60c082015242610140820152600c54600160401b811015610d2f57806001610a279201600c556121dc565b610ebc5781519283516001600160401b038111610d2f57610a48835461222d565b601f8111610e78575b506020601f8211600114610e0f578192939495600092610e04575b50508160011b916000199060031b1c19161782555b60208301519283516001600160401b038111610d2f57610aa4600185015461222d565b601f8111610dbd575b506020601f8211600114610d50578192939495600092610d45575b50508160011b916000199060031b1c19161760018401555b60408101519283516001600160401b038111610d2f57610b03600283015461222d565b601f8111610ce8575b506020601f8211600114610c75578190600e949596600092610c6a575b50508160011b916000199060031b1c19161760028201555b606083015160038201556080830151600482015560a0830151600582015560c0830151600682015560e083015160078201556101008301516008820155610b9e6101208401511515600983019060ff801983541691151516179055565b610140830151600a820155610160830151600b820155610bd46101808401511515600c83019060ff801983541691151516179055565b6101a0830151600d82015501906101c060018060a01b03910151166001600160601b0360a01b825416179055600c546000198101908111610c5457807fd5d11b7f2f42046a2fb8b610182f6ad17c14cb4d04af08508f078c5957fb7ff5610c49602094604051918291878352878301906120e9565b0390a2604051908152f35b634e487b7160e01b600052601160045260246000fd5b015190508680610b29565b6002830160005260206000209560005b601f1984168110610cd05750958291600e959697600194601f19811610610cb7575b505050811b016002820155610b41565b015160001960f88460031b161c19169055868080610ca7565b82820151885560019097019660209283019201610c85565b600283016000526020600020601f830160051c810160208410610d28575b601f830160051c82018110610d1c575050610b0c565b60008155600101610d06565b5080610d06565b634e487b7160e01b600052604160045260246000fd5b015190508580610ac8565b60018501600052602060002090600096601f198416975b888110610da557508360019596979810610d8c575b505050811b016001840155610ae0565b015160001960f88460031b161c19169055858080610d7c565b91926020600181928685015181550194019201610d67565b600185016000526020600020601f830160051c810160208410610dfd575b601f830160051c82018110610df1575050610aad565b60008155600101610ddb565b5080610ddb565b015190508580610a6c565b8360005260206000209060005b601f1984168110610e60575060019394959683601f19811610610e47575b505050811b018255610a81565b015160001960f88460031b161c19169055858080610e3a565b9091602060018192858b015181550193019101610e1c565b836000526020600020601f830160051c810160208410610eb5575b601f830160051c82018110610ea9575050610a51565b60008155600101610e93565b5080610e93565b634e487b7160e01b600052600060045260246000fd5b60405162461bcd60e51b815260206004820152600d60248201526c06e756d62657252616e67653d3609c1b6044820152fd5b60405162461bcd60e51b815260206004820152600d60248201526c07469636b65745072697a653d3609c1b6044820152fd5b60405162461bcd60e51b815260206004820152601060248201526f486f75736520637574203e203130302560801b6044820152fd5b60405162461bcd60e51b815260206004820152600c60248201526b4f6e6c7920666163746f727960a01b6044820152fd5b346102c85760003660031901126102c85760405160006001805490610fc08261222d565b808552918181169081156110545750600114610ffb575b6104d384610fe781860382612186565b6040519182916020835260208301906120e9565b600081815292507fb10e2d527612073b26eecdfd717e6a320cf44b4afac2b0732d9fcbe2b7fa0cf65b82841061103c575050508101602001610fe782610fd7565b80546020858701810191909152909301928101611024565b60ff191660208087019190915292151560051b85019092019250610fe79150839050610fd7565b346102c85760003660031901126102c857600a546040516001600160a01b039091168152602090f35b346102c85760003660031901126102c8576020600c54604051908152f35b346102c85760a03660031901126102c8576004356001600160401b03811681036102c85760443563ffffffff918282168092036102c8576064359161ffff831683036102c85760843593841684036102c85765ffff00000000916111246123cc565b601254906001600160401b0360a01b9060a01b16906001600160401b0360a01b19161760125560243560135569ffffffff0000000000006014549460301b169369ffffffffffffffffffff1916179160201b161717601455600080f35b346102c85760203660031901126102c85760043560005260156020526020604060002054604051908152f35b346102c8576111bb36612129565b90600052600d602052604060002080548210156102c8576020916111de91612344565b90546040519160031b1c8152f35b346102c85760003660031901126102c857602063ffffffff60145460301c16604051908152f35b346102c85760003660031901126102c8576020601054604051908152f35b346102c85760003660031901126102c85761124a6123cc565b600a80546001600160a01b031981169091556000906001600160a01b03167f8be0079c531659141344cd1fd0a4f28419497f9722a3daafe3b4186f6b6457e08280a3005b346102c85760203660031901126102c85760206112b16112ac61213f565b612424565b604051908152f35b346102c85760203660031901126102c85760206112d76004356124e7565b6040516001600160a01b039091168152f35b346102c85760003660031901126102c8576020601354604051908152f35b346102c85760203660031901126102c857600435600c548110156102c85761132e906121dc565b5061133881612267565b61134460018301612267565b61135060028401612267565b9260038101549060048101546005820154600683015460078401546008850154600986015460ff1691600a87015493600b88015495600c89015460ff1697600d8a015499600160a01b6001900390600e0154169a6040519e8f9e8f9e8f916101e080845283016113bf916120e9565b82810360208401526113d0916120e9565b9080820390604001526113e2916120e9565b9c6060015260808d015260a08c015260c08b015260e08a0152610100890152151561012088015261014087015261016086015215156101808501526101a08401526101c08301520390f35b346102c85760203660031901126102c85761144661213f565b61144e6123cc565b6001600160a01b03168015611475576001600160601b0360a01b6016541617601655600080f35b60405162461bcd60e51b815260206004820152600f60248201526e496e76616c696420666163746f727960881b6044820152606490fd5b346102c85760203660031901126102c8576004356008548110156114d5576111de60209161230d565b60405162461bcd60e51b815260206004820152602c60248201527f455243373231456e756d657261626c653a20676c6f62616c20696e646578206f60448201526b7574206f6620626f756e647360a01b6064820152608490fd5b346102c85760003660031901126102c8576011546040516001600160a01b039091168152602090f35b346102c85761001961058061156c366121a7565b906040519261157a8461216b565b6000845261057061056b8433612621565b346102c85760203660031901126102c85761162e6115aa6004356121dc565b506115b481612267565b906115c160018201612267565b6115cd60028301612267565b91600b810154926008820154600683015480421015600014611678575060005b60ff6009850154169161164a60ff600c870154169461163c600d88015497600e60018060a01b0391015416986040519c8d9c8d6101409081815201906120e9565b8c810360208e0152906120e9565b908a820360408c01526120e9565b966060890152608088015260a0870152151560c0860152151560e08501526101008401526101208301520390f35b611683904290612ac2565b6115ed565b346102c85760003660031901126102c8576012546040516001600160a01b039091168152602090f35b346102c85760403660031901126102c8576116ca61213f565b602435906116d781612424565b82101561170a5760018060a01b031660005260066020526040600020906000526020526020604060002054604051908152f35b60405162461bcd60e51b815260206004820152602b60248201527f455243373231456e756d657261626c653a206f776e657220696e646578206f7560448201526a74206f6620626f756e647360a81b6064820152608490fd5b61176c36612129565b611774612b18565b61177d826121dc565b509161179060ff60098501541615612adc565b60068301544211611b25576001928383101580611b17575b15611ad25760038101543403611a9a5781600052602090600e82526040600020846000528252604060002054611a6757600581015490813402913483041434151715610c54576064600b92046117fe8134612ac2565b9061180e60078401918254612acf565b905561181f60088301918254612acf565b905501805490858201809211610c5457556010546000198114610c54578401908160105560405161184f8161216b565b600081523315611a24576000838152600260205260409020546119549161058091611886906001600160a01b031615155b15612b6e565b60085485600052600985526040600020556118a085612a9f565b6118a933612424565b336000526006855260406000208160005285528560406000205585600052600785526040600020556118f361188086600052600260205260018060a01b0360406000205416151590565b3360005260038452604060002088815401905584600052600284526040600020336001600160601b0360a01b825416179055843360007fddf252ad1be2c89b69c2b068fc378daa952ba7f163c4a11628f55a4df523b3ef8180a48433612929565b82600052600e8152604060002084600052815281604060002055604051604081018181106001600160401b03821117610d2f576040528381528582820186815284600052600f84526040600020925183555191015582600052600d815260406000208054600160401b811015610d2f576119d7816119f093898994018155612344565b90919082549060031b91821b91600019901b1916179055565b6040519384528301527fef266bb11bf4b58aa8562ab8c8746e3b84a521780a2c57ca09d87bae13f5eb0960403393a3600b55005b6064826040519062461bcd60e51b825280600483015260248201527f4552433732313a206d696e7420746f20746865207a65726f20616464726573736044820152fd5b60405162461bcd60e51b815260048101839052600b60248201526a151a58dad95d081cdbdb1960aa1b6044820152606490fd5b60405162461bcd60e51b815260206004820152601060248201526f15dc9bdb99c811551208185b5bdd5b9d60821b6044820152606490fd5b60405162461bcd60e51b815260206004820152601960248201527f7469636b65744e756d626572206f7574206f662072616e6765000000000000006044820152606490fd5b5060048101548311156117a8565b60405162461bcd60e51b815260206004820152600f60248201526e111958591b1a5b99481c185cdcd959608a1b6044820152606490fd5b346102c85760003660031901126102c857602063ffffffff60145416604051908152f35b346102c857610019611b91366121a7565b91611b9f61056b8433612621565b6126e9565b346102c85760403660031901126102c8576001600160401b036024358181116102c857366023820112156102c8578060040135918211610d2f578160051b9060405191602093611bf685830185612186565b8352602484840191830101913683116102c857602401905b828210611c7257837f00000000000000000000000000000000000000000000000000000000000000006001600160a01b031633819003611c545761001982600435612bba565b6044906040519063073e64fd60e21b82523360048301526024820152fd5b81358152908401908401611c0e565b346102c85760003660031901126102c8576020600854604051908152f35b346102c85760003660031901126102c85760206001600160401b0360125460a01c16604051908152f35b346102c85760403660031901126102c857611ce261213f565b602435906001600160a01b038080611cf9856124e7565b16921691808314611df457803314908115611dcf575b5015611d6457600083815260046020526040902080546001600160a01b03191683179055611d3c836124e7565b167f8c5be1e5ebec7d5bd14f71427d1e84f3dd0314c0f7b2291e5b200ac8c7c3b925600080a4005b60405162461bcd60e51b815260206004820152603d60248201527f4552433732313a20617070726f76652063616c6c6572206973206e6f7420746f60448201527f6b656e206f776e6572206f7220617070726f76656420666f7220616c6c0000006064820152608490fd5b9050600052600560205260406000203360005260205260ff6040600020541684611d0f565b60405162461bcd60e51b815260206004820152602160248201527f4552433732313a20617070726f76616c20746f2063757272656e74206f776e656044820152603960f91b6064820152608490fd5b346102c85760203660031901126102c85760206112d760043561250a565b346102c857611e6f36612129565b90600052600e6020526040600020906000526020526020604060002054604051908152f35b346102c85760003660031901126102c85760405160008054611eb58161222d565b808452906001908181169081156110545750600114611ede576104d384610fe781860382612186565b600080805292507f290decd9548b62a8d60345a988386fc84ba6bc95484008f6362f93160ef3e5635b828410611f1f575050508101602001610fe782610fd7565b80546020858701810191909152909301928101611f07565b346102c85760203660031901126102c85760043563ffffffff60e01b81168091036102c85760209063780e9d6360e01b8114908115611f7c575b506040519015158152f35b6380ac58cd60e01b811491508115611fae575b8115611f9d575b5082611f71565b6301ffc9a760e01b14905082611f96565b635b5e139f60e01b81149150611f8f565b346102c85760203660031901126102c857611fd8612b18565b611fe36004356121dc565b506011546001600160a01b0391908216331480156120dc575b156120a25760070190815490811561206a5760008080938193828755601154165af16120266128f9565b5015612033576001600b55005b60405162461bcd60e51b815260206004820152600f60248201526e15da5d1a191c985dc819985a5b1959608a1b6044820152606490fd5b60405162461bcd60e51b815260206004820152601060248201526f4e6f20686f7573652062616c616e636560801b6044820152606490fd5b60405162461bcd60e51b81526020600482015260126024820152712737ba103437bab9b29037b91037bbb732b960711b6044820152606490fd5b5081600a54163314611ffc565b919082519283825260005b848110612115575050826000602080949584010152601f8019910116010190565b6020818301810151848301820152016120f4565b60409060031901126102c8576004359060243590565b600435906001600160a01b03821682036102c857565b602435906001600160a01b03821682036102c857565b602081019081106001600160401b03821117610d2f57604052565b90601f801991011681019081106001600160401b03821117610d2f57604052565b60609060031901126102c8576001600160a01b039060043582811681036102c8579160243590811681036102c8579060443590565b600c5481101561221757600f90600c600052027fdf6966c971051c3d54ec59162606531493a51404a002842f56009d7e5cf4a8c70190600090565b634e487b7160e01b600052603260045260246000fd5b90600182811c9216801561225d575b602083101461224757565b634e487b7160e01b600052602260045260246000fd5b91607f169161223c565b906040519182600082549261227b8461222d565b9081845260019485811690816000146122ea57506001146122a7575b50506122a592500383612186565b565b9093915060005260209081600020936000915b8183106122d25750506122a593508201013880612297565b855488840185015294850194879450918301916122ba565b9150506122a594506020925060ff191682840152151560051b8201013880612297565b6008548110156122175760086000527ff3f7a9fe364faab93b216da50a3214154f22a0a2b415b23a84c8169e8b636ee30190600090565b80548210156122175760005260206000200190600090565b6001600160401b038111610d2f57601f01601f191660200190565b9291926123838261235c565b916123916040519384612186565b8294818452818301116102c8578281602093846000960137010152565b9080601f830112156102c8578160206123c993359101612377565b90565b600a546001600160a01b031633036123e057565b606460405162461bcd60e51b815260206004820152602060248201527f4f776e61626c653a2063616c6c6572206973206e6f7420746865206f776e65726044820152fd5b6001600160a01b0316801561244457600052600360205260406000205490565b60405162461bcd60e51b815260206004820152602960248201527f4552433732313a2061646472657373207a65726f206973206e6f7420612076616044820152683634b21037bbb732b960b91b6064820152608490fd5b156124a257565b60405162461bcd60e51b815260206004820152601860248201527f4552433732313a20696e76616c696420746f6b656e20494400000000000000006044820152606490fd5b6000908152600260205260409020546001600160a01b03166123c981151561249b565b60008181526002602052604090205461252d906001600160a01b0316151561249b565b6000908152600460205260409020546001600160a01b031690565b1561254f57565b60405162461bcd60e51b815260206004820152602d60248201527f4552433732313a2063616c6c6572206973206e6f7420746f6b656e206f776e6560448201526c1c881bdc88185c1c1c9bdd9959609a1b6064820152608490fd5b60809060208152603260208201527f4552433732313a207472616e7366657220746f206e6f6e20455243373231526560408201527131b2b4bb32b91034b6b83632b6b2b73a32b960711b60608201520190565b1561260457565b60405162461bcd60e51b81528061261d600482016125aa565b0390fd5b906001600160a01b038080612635846124e7565b16931691838314938415612668575b508315612652575b50505090565b61265e9192935061250a565b161438808061264c565b909350600052600560205260406000208260005260205260ff604060002054169238612644565b1561269657565b60405162461bcd60e51b815260206004820152602560248201527f4552433732313a207472616e736665722066726f6d20696e636f72726563742060448201526437bbb732b960d91b6064820152608490fd5b61270d916126f6846124e7565b6001600160a01b039384841693918516841461268f565b8382169384156128a85783918261280557506127579260085487600052600960205260406000205561273e87612a9f565b8286036127d2575b50612750866124e7565b161461268f565b7fddf252ad1be2c89b69c2b068fc378daa952ba7f163c4a11628f55a4df523b3ef60008481526004602052604081206001600160601b0360a01b9081815416905583825260036020526040822060001981540190558482526040822060018154019055858252600260205284604083209182541617905580a4565b6127db90612424565b60406000878152600660205281812083825260205288828220558881526007602052205538612746565b858303612817575b506127579261273e565b612822919250612424565b600019810191908211610c54576127579284926000908882526020906007825260409182842054828103612871575b508a8452838381205586845260068152828420918452528120559261280d565b8785526006825283852083865282528385205488865260068352848620828752835280858720558552600782528385205538612851565b60405162461bcd60e51b8152602060048201526024808201527f4552433732313a207472616e7366657220746f20746865207a65726f206164646044820152637265737360e01b6064820152608490fd5b3d15612924573d9061290a8261235c565b916129186040519384612186565b82523d6000602084013e565b606090565b909190803b15612a19576020604051809281630a85bd0160e11b9687825233600483015281612972600098899384602485015260448401526080606484015260848301906120e9565b03926001600160a01b03165af1908290826129ca575b50506129bc576129966128f9565b805190816129b75760405162461bcd60e51b81528061261d600482016125aa565b602001fd5b6001600160e01b0319161490565b909192506020813d8211612a11575b816129e660209383612186565b81010312612a0d5751906001600160e01b031982168203612a0a5750903880612988565b80fd5b5080fd5b3d91506129d9565b505050600190565b919290803b15612a9657604051630a85bd0160e11b8082523360048301526001600160a01b03948516602483015260448201959095526080606482015291602091839182908190612a769060848301906120e9565b03916000968791165af1908290826129ca5750506129bc576129966128f9565b50505050600190565b60085490600160401b821015610d2f576119d78260016122a5940160085561230d565b91908203918211610c5457565b91908201809211610c5457565b15612ae357565b60405162461bcd60e51b815260206004820152600d60248201526c105b1c9958591e48195b991959609a1b6044820152606490fd5b6002600b5414612b29576002600b55565b60405162461bcd60e51b815260206004820152601f60248201527f5265656e7472616e637947756172643a207265656e7472616e742063616c6c006044820152606490fd5b15612b7557565b60405162461bcd60e51b815260206004820152601c60248201527f4552433732313a20746f6b656e20616c7265616479206d696e746564000000006044820152606490fd5b60009081526020906015825260408082205493612bd6856121dc565b5093600c85019160ff835416612d4557600b86015415612d4557868552600d82528385205490805115612d31578201518115612d1d5790612c2191888752600d845206848620612344565b90549060031b1c94868552600e82528385208686528252612c44848620546124e7565b92600882019586549687612cb9575b5050805460ff19166001179055600d8101869055600e0180546001600160a01b0319166001600160a01b03909316928317905582519485528401528201527fb8639d96359347ee9c2450fb169ec40a1539570d38bca935b1e2a6fed3e694e490606090a2565b819055808080896001600160a01b0389165af1612cd46128f9565b5015612ce1573880612c53565b845162461bcd60e51b8152600481018490526015602482015274141c9a5e99481d1c985b9cd9995c8819985a5b1959605a1b6044820152606490fd5b634e487b7160e01b86526012600452602486fd5b634e487b7160e01b86526032600452602486fd5b5050505050505056fea2646970667358221220b371b438ade2c65fec2a66baf0dba207b71e9d9330a19341b72d3e4f0cf42ec664736f6c63430008140033",
  "immutableReferences": {
    "10": [
      {
        "length": 32,
        "start": 7192
      }
    ]
  },
  "source": "// SPDX-License-Identifier: MIT\r\npragma solidity ^0.8.20;\r\n\r\nimport \"@openzeppelin/contracts/token/ERC721/extensions/ERC721Enumerable.sol\";\r\nimport \"@openzeppelin/contracts/access/Ownable.sol\";\r\nimport \"@openzeppelin/contracts/security/ReentrancyGuard.sol\";\r\nimport \"@chainlink/contracts/src/v0.8/VRFConsumerBaseV2.sol\";\r\nimport \"@chainlink/contracts/src/v0.8/interfaces/VRFCoordinatorV2Interface.sol\";\r\n\r\n/**\r\n * @title MultiRaffle\r\n * @notice Single-winner raffle logic with a dynamic array of sold ticketNumbers.\r\n */\r\ncontract MultiRaffle is\r\n    ERC721Enumerable,\r\n    Ownable,\r\n    ReentrancyGuard,\r\n    VRFConsumerBaseV2\r\n{\r\n    // =========================================================\r\n    // STRUCTS\r\n    // =========================================================\r\n\r\n    /**\r\n     * @dev `RaffleSettings` for a single-winner raffle:\r\n     *   - ticketSize: cost per ticket (wei)\r\n     *   - numberRange: valid ticketNumbers in [1..numberRange]\r\n     *   - houseTake: 0..100 (percentage)\r\n     *   - raffleDuration: how long until raffleDeadline, in seconds\r\n     */\r\n    struct RaffleSettings {\r\n        uint256 ticketSize;\r\n        uint256 numberRange;\r\n        uint256 houseTake;      \r\n        uint256 raffleDuration; \r\n    }\r\n\r\n    /**\r\n     * @dev Stores all data about a single raffle.\r\n     *      `winnerPicked` becomes true once Chainlink picks the winner.\r\n     */\r\n    struct RaffleData {\r\n        // Metadata\r\n        string raffleName;\r\n        string raffleImage;\r\n        string raffleDescription;\r\n\r\n        // Settings\r\n        uint256 ticketSize;\r\n        uint256 numberRange;\r\n        uint256 houseTake;\r\n        uint256 raffleDeadline;\r\n\r\n        // State\r\n        uint256 treasuryBalance;   \r\n        uint256 remainingPrizePool;\r\n        bool raffleEnded;\r\n        uint256 lastDrawTime;\r\n        uint256 ticketsSoldCount;\r\n\r\n        // Winner info\r\n        bool winnerPicked;\r\n        uint256 winningTicketNumber;\r\n        address winnerAddress;\r\n    }\r\n\r\n    /**\r\n     * @dev For each minted NFT ticket, store which raffle & ticketNumber.\r\n     */\r\n    struct RaffleTicket {\r\n        uint256 raffleId;\r\n        uint256 ticketNumber;\r\n    }\r\n\r\n    // =========================================================\r\n    // STORAGE\r\n    // =========================================================\r\n\r\n    RaffleData[] public raffles;\r\n\r\n    /**\r\n     * @notice For each raffle, store a dynamic array of sold ticketNumbers.\r\n     *         e.g. soldTickets[raffleId] = [7, 42, 99, ...]\r\n     */\r\n    mapping(uint256 => uint256[]) public soldTickets;\r\n\r\n    /**\r\n     * @notice raffleId => (ticketNumber => tokenId).\r\n     *         0 means unsold.\r\n     */\r\n    mapping(uint256 => mapping(uint256 => uint256)) public raffleTicketId;\r\n\r\n    /**\r\n     * @notice tokenId => RaffleTicket info (which raffle, which ticketNumber).\r\n     */\r\n    mapping(uint256 => RaffleTicket) public raffleTicketInfo;\r\n\r\n    /// @dev global token ID for minted tickets\r\n    uint256 public nextTokenId;\r\n\r\n    /// @dev The house address that receives treasuryBalance\r\n    address public houseAccount;\r\n\r\n    // ---------------------------------------------------------\r\n    // Chainlink VRF config\r\n    // ---------------------------------------------------------\r\n    VRFCoordinatorV2Interface public COORDINATOR;\r\n    uint64  public subscriptionId;\r\n    bytes32 public keyHash;\r\n    uint32  public callbackGasLimit     = 100000;\r\n    uint16  public requestConfirmations = 3;\r\n    uint32  public numWords             = 1;\r\n\r\n    /// @dev requestId => raffleId\r\n    mapping(uint256 => uint256) public requestIdToRaffleId;\r\n\r\n    // =========================================================\r\n    // EVENTS\r\n    // =========================================================\r\n    event RaffleCreated(uint256 indexed raffleId, string name);\r\n    event TicketPurchased(uint256 indexed raffleId, address indexed buyer, uint256 ticketNumber, uint256 tokenId);\r\n    event RaffleEnded(uint256 indexed raffleId);\r\n    event WinnerSelected(uint256 indexed raffleId, uint256 winningTicket, address winner, uint256 prize);\r\n\r\n    // =========================================================\r\n    // CONSTRUCTOR\r\n    // =========================================================\r\n    constructor(\r\n        address _owner,\r\n        address _houseAccount,\r\n        address vrfCoordinator,\r\n        uint64  _subscriptionId,\r\n        bytes32 _keyHash\r\n    )\r\n        ERC721(\"MultiRaffleTicket\", \"MRFT\")\r\n        VRFConsumerBaseV2(vrfCoordinator)\r\n    {\r\n        require(_houseAccount != address(0), \"Invalid houseAccount\");\r\n        houseAccount   = _houseAccount;\r\n        COORDINATOR    = VRFCoordinatorV2Interface(vrfCoordinator);\r\n        subscriptionId = _subscriptionId;\r\n        keyHash        = _keyHash;\r\n\r\n        _transferOwnership(_owner);\r\n    }\r\n\r\n    /// @notice The factory address that can create new raffles\r\n    address public factory;\r\n\r\n    function setFactory(address _factory) external onlyOwner {\r\n        require(_factory != address(0), \"Invalid factory\");\r\n        factory = _factory;\r\n    }\r\n\r\n    modifier onlyFactory() {\r\n        require(msg.sender == factory, \"Only factory\");\r\n        _;\r\n    }\r\n\r\n    // =========================================================\r\n    // CREATE RAFFLE\r\n    // =========================================================\r\n\r\n    /**\r\n     * @notice Create a new single-winner raffle, returning its ID.\r\n     */\r\n    function createRaffle(\r\n        RaffleSettings memory _settings,\r\n        string memory _raffleName,\r\n        string memory _raffleImage,\r\n        string memory _raffleDescription\r\n    )\r\n        external\r\n        onlyFactory\r\n        returns (uint256 raffleId)\r\n    {\r\n        raffleId = _createRaffle(_settings, _raffleName, _raffleImage, _raffleDescription);\r\n    }\r\n\r\n    function _createRaffle(\r\n        RaffleSettings memory s,\r\n        string memory _name,\r\n        string memory _img,\r\n        string memory _desc\r\n    )\r\n        internal\r\n        returns (uint256)\r\n    {\r\n        require(s.houseTake <= 100, \"House cut > 100%\");\r\n        require(s.ticketSize > 0, \"ticketPrize=0\");\r\n        require(s.numberRange > 0, \"numberRange=0\");\r\n\r\n        RaffleData memory r;\r\n        r.raffleName        = _name;\r\n        r.raffleImage       = _img;\r\n        r.raffleDescription = _desc;\r\n        r.ticketSize       = s.ticketSize;\r\n        r.numberRange       = s.numberRange;\r\n        r.houseTake         = s.houseTake;\r\n        r.raffleDeadline    = block.timestamp + s.raffleDuration;\r\n        r.lastDrawTime      = block.timestamp;\r\n\r\n        raffles.push(r);\r\n        uint256 newId = raffles.length - 1;\r\n        emit RaffleCreated(newId, _name);\r\n        return newId;\r\n    }\r\n\r\n    // =========================================================\r\n    // BUY TICKET\r\n    // =========================================================\r\n\r\n    function buyTicket(uint256 raffleId, uint256 ticketNumber)\r\n        external\r\n        payable\r\n        nonReentrant\r\n    {\r\n        RaffleData storage r = raffles[raffleId];\r\n\r\n        require(!r.raffleEnded, \"Already ended\");\r\n        require(block.timestamp <= r.raffleDeadline, \"Deadline passed\");\r\n\r\n        require(ticketNumber >= 1 && ticketNumber <= r.numberRange, \"ticketNumber out of range\");\r\n        require(msg.value == r.ticketSize, \"Wrong ETH amount\");\r\n        require(raffleTicketId[raffleId][ticketNumber] == 0, \"Ticket sold\");\r\n\r\n        // House cut vs. prize\r\n        uint256 houseCut = (msg.value * r.houseTake) / 100;\r\n        uint256 prize    = msg.value - houseCut;\r\n\r\n        r.treasuryBalance    += houseCut;\r\n        r.remainingPrizePool += prize;\r\n        r.ticketsSoldCount   += 1;\r\n\r\n        nextTokenId++;\r\n        uint256 tokenId = nextTokenId;\r\n        _safeMint(msg.sender, tokenId);\r\n\r\n        raffleTicketId[raffleId][ticketNumber] = tokenId;\r\n        raffleTicketInfo[tokenId] = RaffleTicket(raffleId, ticketNumber);\r\n\r\n        // Save the sold ticketNumber in dynamic array\r\n        soldTickets[raffleId].push(ticketNumber);\r\n\r\n        emit TicketPurchased(raffleId, msg.sender, ticketNumber, tokenId);\r\n    }\r\n\r\n    // =========================================================\r\n    // RANDOM PICK OF WINNER (CHAINLINK VRF)\r\n    // =========================================================\r\n\r\n    /**\r\n     * @notice Called by the owner once the raffle is past its deadline.\r\n     */\r\n    function requestRandomNumber(uint256 raffleId) external onlyOwner {\r\n        RaffleData storage r = raffles[raffleId];\r\n\r\n        require(!r.raffleEnded, \"Already ended\");\r\n        require(block.timestamp > r.raffleDeadline, \"Not past deadline\");\r\n        require(r.ticketsSoldCount > 0, \"No tickets sold\");\r\n\r\n        r.raffleEnded = true;\r\n        emit RaffleEnded(raffleId);\r\n\r\n        uint256 reqId = COORDINATOR.requestRandomWords(\r\n            keyHash,\r\n            subscriptionId,\r\n            requestConfirmations,\r\n            callbackGasLimit,\r\n            numWords\r\n        );\r\n        requestIdToRaffleId[reqId] = raffleId;\r\n    }\r\n\r\n    function fulfillRandomWords(uint256 requestId, uint256[] memory randomWords) internal override {\r\n        uint256 raffleId = requestIdToRaffleId[requestId];\r\n        RaffleData storage r = raffles[raffleId];\r\n        if (r.winnerPicked) return;\r\n        if (r.ticketsSoldCount == 0) return; // just in case\r\n\r\n        // 1) pick random index in [0..(soldTickets[raffleId].length - 1)]\r\n        uint256 totalSold = soldTickets[raffleId].length;\r\n        uint256 randomIndex = randomWords[0] % totalSold;\r\n\r\n        // 2) retrieve the actual ticketNumber from the array\r\n        uint256 winningTicketNumber = soldTickets[raffleId][randomIndex];\r\n\r\n        // 3) get the NFT ticket's owner\r\n        uint256 tokenId = raffleTicketId[raffleId][winningTicketNumber];\r\n        address winner = ownerOf(tokenId);\r\n\r\n        // 4) transfer the entire prize to the winner\r\n        uint256 prize = r.remainingPrizePool;\r\n        if (prize > 0) {\r\n            r.remainingPrizePool = 0;\r\n            (bool ok, ) = payable(winner).call{value: prize}(\"\");\r\n            require(ok, \"Prize transfer failed\");\r\n        }\r\n\r\n        // 5) record the winner\r\n        r.winnerPicked         = true;\r\n        r.winningTicketNumber  = winningTicketNumber;\r\n        r.winnerAddress        = winner;\r\n\r\n        emit WinnerSelected(raffleId, winningTicketNumber, winner, prize);\r\n    }\r\n\r\n    // =========================================================\r\n    // VIEW RAFFLE\r\n    // =========================================================\r\n\r\n    /**\r\n     * @notice Return data about a raffle, including if winner was picked, etc.\r\n     */\r\n    function getRaffleData(uint256 raffleId)\r\n        external\r\n        view\r\n        returns (\r\n            string memory nameOfRaffle,\r\n            string memory raffleImg,\r\n            string memory raffleDesc,\r\n            uint256 ticketsSold,\r\n            uint256 currentPrize,\r\n            uint256 timeLeft,\r\n            bool ended,\r\n            bool winnerPicked,\r\n            uint256 winningTicketNumber,\r\n            address winner\r\n        )\r\n    {\r\n        RaffleData storage r = raffles[raffleId];\r\n\r\n        nameOfRaffle = r.raffleName;\r\n        raffleImg    = r.raffleImage;\r\n        raffleDesc   = r.raffleDescription;\r\n\r\n        ticketsSold = r.ticketsSoldCount;\r\n        currentPrize = r.remainingPrizePool;\r\n\r\n        if (block.timestamp >= r.raffleDeadline) {\r\n            timeLeft = 0;\r\n        } else {\r\n            timeLeft = r.raffleDeadline - block.timestamp;\r\n        }\r\n\r\n        ended               = r.raffleEnded;\r\n        winnerPicked        = r.winnerPicked;\r\n        winningTicketNumber = r.winningTicketNumber;\r\n        winner              = r.winnerAddress;\r\n    }\r\n\r\n    function getRafflesLength() external view returns (uint256) {\r\n        return raffles.length;\r\n    }\r\n\r\n    // =========================================================\r\n    // WITHDRAW & ADMIN\r\n    // =========================================================\r\n\r\n    /**\r\n     * @notice Withdraw the house's cut for a raffle.  \r\n     */\r\n    function withdrawHouseBalance(uint256 raffleId) external nonReentrant {\r\n        RaffleData storage r = raffles[raffleId];\r\n        require(msg.sender == houseAccount || msg.sender == owner(), \"Not house or owner\");\r\n\r\n        uint256 amount = r.treasuryBalance;\r\n        require(amount > 0, \"No house balance\");\r\n\r\n        r.treasuryBalance = 0;\r\n        (bool ok, ) = payable(houseAccount).call{value: amount}(\"\");\r\n        require(ok, \"Withdraw failed\");\r\n    }\r\n\r\n    function updateHouseAccount(address newHouseAccount) external onlyOwner {\r\n        require(newHouseAccount != address(0), \"Invalid address\");\r\n        houseAccount = newHouseAccount;\r\n    }\r\n\r\n    function updateVRFConfig(\r\n        uint64  _subscriptionId,\r\n        bytes32 _keyHash,\r\n        uint32  _callbackGasLimit,\r\n        uint16  _requestConfirmations,\r\n        uint32  _numWords\r\n    ) external onlyOwner {\r\n        subscriptionId       = _subscriptionId;\r\n        keyHash              = _keyHash;\r\n        callbackGasLimit     = _callbackGasLimit;\r\n        requestConfirmations = _requestConfirmations;\r\n        numWords             = _numWords;\r\n    }\r\n\r\n    receive() external payable {}\r\n\r\n    function withdrawStuckETH() external onlyOwner nonReentrant {\r\n        uint256 bal = address(this).balance;\r\n        require(bal > 0, \"No ETH to withdraw\");\r\n        (bool success, ) = payable(owner()).call{ value: bal }(\"\");\r\n        require(success, \"Transfer failed\");\r\n    }\r\n}\r\n",
  "sourcePath": "C:\\Users\\Tommy\\Documents\\raffle\\myTruffle\\contracts\\Raffle.sol",
  "compiler": {
    "name": "solc",
    "version": "0.8.20+commit.a1b79de6.Emscripten.clang"
  },
  "schemaVersion": "3.4.16",
  "updatedAt": "2025-05-13T20:24:00.986Z",
  "networkType": "ethereum",
  "devdoc": {
    "events": {
      "Approval(address,address,uint256)": {
        "details": "Emitted when `owner` enables `approved` to manage the `tokenId` token."
      },
      "ApprovalForAll(address,address,bool)": {
        "details": "Emitted when `owner` enables or disables (`approved`) `operator` to manage all of its assets."
      },
      "Transfer(address,address,uint256)": {
        "details": "Emitted when `tokenId` token is transferred from `from` to `to`."
      }
    },
    "kind": "dev",
    "methods": {
      "approve(address,uint256)": {
        "details": "See {IERC721-approve}."
      },
      "balanceOf(address)": {
        "details": "See {IERC721-balanceOf}."
      },
      "getApproved(uint256)": {
        "details": "See {IERC721-getApproved}."
      },
      "isApprovedForAll(address,address)": {
        "details": "See {IERC721-isApprovedForAll}."
      },
      "name()": {
        "details": "See {IERC721Metadata-name}."
      },
      "owner()": {
        "details": "Returns the address of the current owner."
      },
      "ownerOf(uint256)": {
        "details": "See {IERC721-ownerOf}."
      },
      "renounceOwnership()": {
        "details": "Leaves the contract without owner. It will not be possible to call `onlyOwner` functions. Can only be called by the current owner. NOTE: Renouncing ownership will leave the contract without an owner, thereby disabling any functionality that is only available to the owner."
      },
      "safeTransferFrom(address,address,uint256)": {
        "details": "See {IERC721-safeTransferFrom}."
      },
      "safeTransferFrom(address,address,uint256,bytes)": {
        "details": "See {IERC721-safeTransferFrom}."
      },
      "setApprovalForAll(address,bool)": {
        "details": "See {IERC721-setApprovalForAll}."
      },
      "supportsInterface(bytes4)": {
        "details": "See {IERC165-supportsInterface}."
      },
      "symbol()": {
        "details": "See {IERC721Metadata-symbol}."
      },
      "tokenByIndex(uint256)": {
        "details": "See {IERC721Enumerable-tokenByIndex}."
      },
      "tokenOfOwnerByIndex(address,uint256)": {
        "details": "See {IERC721Enumerable-tokenOfOwnerByIndex}."
      },
      "tokenURI(uint256)": {
        "details": "See {IERC721Metadata-tokenURI}."
      },
      "totalSupply()": {
        "details": "See {IERC721Enumerable-totalSupply}."
      },
      "transferFrom(address,address,uint256)": {
        "details": "See {IERC721-transferFrom}."
      },
      "transferOwnership(address)": {
        "details": "Transfers ownership of the contract to a new account (`newOwner`). Can only be called by the current owner."
      }
    },
    "stateVariables": {
      "houseAccount": {
        "details": "The house address that receives treasuryBalance"
      },
      "nextTokenId": {
        "details": "global token ID for minted tickets"
      },
      "requestIdToRaffleId": {
        "details": "requestId => raffleId"
      }
    },
    "title": "MultiRaffle",
    "version": 1
  },
  "userdoc": {
    "kind": "user",
    "methods": {
      "createRaffle((uint256,uint256,uint256,uint256),string,string,string)": {
        "notice": "Create a new single-winner raffle, returning its ID."
      },
      "factory()": {
        "notice": "The factory address that can create new raffles"
      },
      "getRaffleData(uint256)": {
        "notice": "Return data about a raffle, including if winner was picked, etc."
      },
      "raffleTicketId(uint256,uint256)": {
        "notice": "raffleId => (ticketNumber => tokenId).         0 means unsold."
      },
      "raffleTicketInfo(uint256)": {
        "notice": "tokenId => RaffleTicket info (which raffle, which ticketNumber)."
      },
      "requestRandomNumber(uint256)": {
        "notice": "Called by the owner once the raffle is past its deadline."
      },
      "soldTickets(uint256,uint256)": {
        "notice": "For each raffle, store a dynamic array of sold ticketNumbers.         e.g. soldTickets[raffleId] = [7, 42, 99, ...]"
      },
      "withdrawHouseBalance(uint256)": {
        "notice": "Withdraw the house's cut for a raffle.  "
      }
    },
    "notice": "Single-winner raffle logic with a dynamic array of sold ticketNumbers.",
    "version": 1
  }
}