{
  "contractName": "RaffleFactory",
  "abi": [
    {
      "inputs": [
        {
          "internalType": "contract MultiRaffle",
          "name": "_multiRaffle",
          "type": "address"
        },
        {
          "internalType": "uint256",
          "name": "_creationFee",
          "type": "uint256"
        },
        {
          "internalType": "uint256",
          "name": "_minTicketPrice",
          "type": "uint256"
        }
      ],
      "stateMutability": "nonpayable",
      "type": "constructor"
    },
    {
      "anonymous": false,
      "inputs": [
        {
          "indexed": false,
          "internalType": "uint256",
          "name": "oldFee",
          "type": "uint256"
        },
        {
          "indexed": false,
          "internalType": "uint256",
          "name": "newFee",
          "type": "uint256"
        }
      ],
      "name": "CreationFeeUpdated",
      "type": "event"
    },
    {
      "anonymous": false,
      "inputs": [
        {
          "indexed": true,
          "internalType": "address",
          "name": "creator",
          "type": "address"
        },
        {
          "indexed": true,
          "internalType": "uint256",
          "name": "raffleId",
          "type": "uint256"
        },
        {
          "indexed": false,
          "internalType": "string",
          "name": "raffleName",
          "type": "string"
        }
      ],
      "name": "FactoryRaffleCreated",
      "type": "event"
    },
    {
      "anonymous": false,
      "inputs": [
        {
          "indexed": true,
          "internalType": "uint256",
          "name": "oldId",
          "type": "uint256"
        },
        {
          "indexed": true,
          "internalType": "uint256",
          "name": "newId",
          "type": "uint256"
        }
      ],
      "name": "FactoryRaffleRestarted",
      "type": "event"
    },
    {
      "anonymous": false,
      "inputs": [
        {
          "indexed": false,
          "internalType": "uint256",
          "name": "oldPrice",
          "type": "uint256"
        },
        {
          "indexed": false,
          "internalType": "uint256",
          "name": "newPrice",
          "type": "uint256"
        }
      ],
      "name": "MinTicketPriceUpdated",
      "type": "event"
    },
    {
      "anonymous": false,
      "inputs": [
        {
          "indexed": true,
          "internalType": "address",
          "name": "previousOwner",
          "type": "address"
        },
        {
          "indexed": true,
          "internalType": "address",
          "name": "newOwner",
          "type": "address"
        }
      ],
      "name": "OwnershipTransferred",
      "type": "event"
    },
    {
      "anonymous": false,
      "inputs": [
        {
          "indexed": false,
          "internalType": "address",
          "name": "account",
          "type": "address"
        }
      ],
      "name": "Paused",
      "type": "event"
    },
    {
      "anonymous": false,
      "inputs": [
        {
          "indexed": false,
          "internalType": "address",
          "name": "account",
          "type": "address"
        }
      ],
      "name": "Unpaused",
      "type": "event"
    },
    {
      "inputs": [],
      "name": "SEED_COUNT",
      "outputs": [
        {
          "internalType": "uint256",
          "name": "",
          "type": "uint256"
        }
      ],
      "stateMutability": "view",
      "type": "function",
      "constant": true
    },
    {
      "inputs": [],
      "name": "creationFee",
      "outputs": [
        {
          "internalType": "uint256",
          "name": "",
          "type": "uint256"
        }
      ],
      "stateMutability": "view",
      "type": "function",
      "constant": true
    },
    {
      "inputs": [],
      "name": "minTicketPrice",
      "outputs": [
        {
          "internalType": "uint256",
          "name": "",
          "type": "uint256"
        }
      ],
      "stateMutability": "view",
      "type": "function",
      "constant": true
    },
    {
      "inputs": [],
      "name": "multiRaffle",
      "outputs": [
        {
          "internalType": "contract MultiRaffle",
          "name": "",
          "type": "address"
        }
      ],
      "stateMutability": "view",
      "type": "function",
      "constant": true
    },
    {
      "inputs": [],
      "name": "owner",
      "outputs": [
        {
          "internalType": "address",
          "name": "",
          "type": "address"
        }
      ],
      "stateMutability": "view",
      "type": "function",
      "constant": true
    },
    {
      "inputs": [],
      "name": "paused",
      "outputs": [
        {
          "internalType": "bool",
          "name": "",
          "type": "bool"
        }
      ],
      "stateMutability": "view",
      "type": "function",
      "constant": true
    },
    {
      "inputs": [
        {
          "internalType": "uint256",
          "name": "",
          "type": "uint256"
        }
      ],
      "name": "raffleCreator",
      "outputs": [
        {
          "internalType": "address",
          "name": "",
          "type": "address"
        }
      ],
      "stateMutability": "view",
      "type": "function",
      "constant": true
    },
    {
      "inputs": [
        {
          "internalType": "address",
          "name": "",
          "type": "address"
        },
        {
          "internalType": "uint256",
          "name": "",
          "type": "uint256"
        }
      ],
      "name": "rafflesCreatedBy",
      "outputs": [
        {
          "internalType": "uint256",
          "name": "",
          "type": "uint256"
        }
      ],
      "stateMutability": "view",
      "type": "function",
      "constant": true
    },
    {
      "inputs": [],
      "name": "renounceOwnership",
      "outputs": [],
      "stateMutability": "nonpayable",
      "type": "function"
    },
    {
      "inputs": [],
      "name": "totalFeesCollected",
      "outputs": [
        {
          "internalType": "uint256",
          "name": "",
          "type": "uint256"
        }
      ],
      "stateMutability": "view",
      "type": "function",
      "constant": true
    },
    {
      "inputs": [
        {
          "internalType": "address",
          "name": "newOwner",
          "type": "address"
        }
      ],
      "name": "transferOwnership",
      "outputs": [],
      "stateMutability": "nonpayable",
      "type": "function"
    },
    {
      "inputs": [
        {
          "components": [
            {
              "internalType": "uint256",
              "name": "ticketSize",
              "type": "uint256"
            },
            {
              "internalType": "uint256",
              "name": "numberRange",
              "type": "uint256"
            },
            {
              "internalType": "uint256",
              "name": "houseTake",
              "type": "uint256"
            },
            {
              "internalType": "uint256",
              "name": "raffleDuration",
              "type": "uint256"
            }
          ],
          "internalType": "struct MultiRaffle.RaffleSettings",
          "name": "_settings",
          "type": "tuple"
        },
        {
          "internalType": "string",
          "name": "_raffleName",
          "type": "string"
        },
        {
          "internalType": "string",
          "name": "_raffleImage",
          "type": "string"
        },
        {
          "internalType": "string",
          "name": "_raffleDesc",
          "type": "string"
        },
        {
          "internalType": "uint256",
          "name": "_raffleDuration",
          "type": "uint256"
        }
      ],
      "name": "createNewRaffle",
      "outputs": [],
      "stateMutability": "payable",
      "type": "function",
      "payable": true
    },
    {
      "inputs": [],
      "name": "withdrawFees",
      "outputs": [],
      "stateMutability": "nonpayable",
      "type": "function"
    },
    {
      "inputs": [
        {
          "internalType": "uint256",
          "name": "newFee",
          "type": "uint256"
        }
      ],
      "name": "setCreationFee",
      "outputs": [],
      "stateMutability": "nonpayable",
      "type": "function"
    },
    {
      "inputs": [
        {
          "internalType": "uint256",
          "name": "newPrice",
          "type": "uint256"
        }
      ],
      "name": "setMinTicketPrice",
      "outputs": [],
      "stateMutability": "nonpayable",
      "type": "function"
    },
    {
      "inputs": [],
      "name": "pauseFactory",
      "outputs": [],
      "stateMutability": "nonpayable",
      "type": "function"
    },
    {
      "inputs": [],
      "name": "unpauseFactory",
      "outputs": [],
      "stateMutability": "nonpayable",
      "type": "function"
    },
    {
      "inputs": [
        {
          "internalType": "uint256",
          "name": "oldId",
          "type": "uint256"
        },
        {
          "internalType": "uint256",
          "name": "newDuration",
          "type": "uint256"
        }
      ],
      "name": "restartRaffle",
      "outputs": [],
      "stateMutability": "payable",
      "type": "function",
      "payable": true
    },
    {
      "inputs": [],
      "name": "getRaffleCount",
      "outputs": [
        {
          "internalType": "uint256",
          "name": "",
          "type": "uint256"
        }
      ],
      "stateMutability": "view",
      "type": "function",
      "constant": true
    },
    {
      "inputs": [
        {
          "internalType": "address",
          "name": "user",
          "type": "address"
        }
      ],
      "name": "getRafflesCreatedBy",
      "outputs": [
        {
          "internalType": "uint256[]",
          "name": "",
          "type": "uint256[]"
        }
      ],
      "stateMutability": "view",
      "type": "function",
      "constant": true
    },
    {
      "inputs": [],
      "name": "getFactoryBalance",
      "outputs": [
        {
          "internalType": "uint256",
          "name": "",
          "type": "uint256"
        }
      ],
      "stateMutability": "view",
      "type": "function",
      "constant": true
    }
  ],
  "bytecode": "0x60803461011c57601f6112e338819003918201601f19168301916001600160401b038311848410176101215780849260609460405283398101031261011c5780516001600160a01b0391908281169081900361011c57604060208301519201519260005460405191339082167f8be0079c531659141344cd1fd0a4f28419497f9722a3daafe3b4186f6b6457e0600080a36001600160a81b0319163360ff60a01b1916176000556001805581156100da5750600280546001600160a01b0319169190911790556003556004556040516111ab90816101388239f35b62461bcd60e51b815260206004820152601360248201527f496e76616c6964204d756c7469526166666c65000000000000000000000000006044820152606490fd5b600080fd5b634e487b7160e01b600052604160045260246000fdfe608060408181526004918236101561001657600080fd5b600092833560e01c9182631922656514610bce575081631d8c608614610b3f5781632b56065b14610aec5781632ebaa0ef14610a3f578163476343ee146109595781635c975abb1461093457816360c6d8ae14610915578163619b6b03146108f7578163715018a61461089d5781638da5cb5b1461087557816397ebad10146107db578163a761dbc0146107b2578163b6a33a3814610753578163b7d86225146106fe578163db70d126146106a5578163dce0b4e414610686578163dcff36c01461066b578163df06803014610224578163e2efb8ca146101f1578163f2fde38b1461012a575063f55923f21461010c57600080fd5b346101265781600319360112610126576020905160068152f35b5080fd5b9050346101ed5760203660031901126101ed57610145610ed6565b9061014e610f1a565b6001600160a01b0391821692831561019b57505082546001600160a01b0319811683178455167f8be0079c531659141344cd1fd0a4f28419497f9722a3daafe3b4186f6b6457e08380a380f35b906020608492519162461bcd60e51b8352820152602660248201527f4f776e61626c653a206e6577206f776e657220697320746865207a65726f206160448201526564647265737360d01b6064820152fd5b8280fd5b9050346101ed5760203660031901126101ed5735825260066020908152918190205490516001600160a01b039091168152f35b918091506003193601126101ed5781359061023d611075565b6102456110bc565b61024d610f1a565b60035434036106305760068210156105e0576002548151633fd5914960e01b81528481018490526001600160a01b03909116908581602481855afa80156105d65786918791610535575b508161052d575b50156104f5578151632ea5e06760e11b8152848101849052918583602481855afa928315610415578692879688809181928295839961041f575b509061031f88959493928851946102ee86610e1a565b855260209a8b988987015289860152602435606086015288519c8d9788968795639669376d60e01b87528601610fba565b03925af19485156104155786956103dc575b506103ae8593927f5df138ce6a81ce22a4a71a4c74cca54ccdff1602cf02a897002a1f539b7c78b69285895260068552808920336bffffffffffffffffffffffff60a01b8254161790553389526007855261038e86828b20611018565b61039a34600554611052565b600555519182918583523395830190610f95565b0390a37fcfdc48e98fbaf5ca94d79e6666d5aa85bb83baff5b14470bab9fe9813ea497848380a36001805580f35b90928092955081813d831161040e575b6103f68183610e4c565b8101031261040a57519390916103ae610331565b8580fd5b503d6103ec565b81513d88823e3d90fd5b975050965050509550503d8087843e6104388184610e4c565b8201916101e0818403126104f157805167ffffffffffffffff908181116104ed5784610465918401611112565b9660208301518281116104e9578561047e918501611112565b91848401519081116104e95761031f95610499918501611112565b97896060850151976080860151926104d56101c060a0890151986104c06101208201611154565b506104ce6101808201611154565b5001611161565b509788959b999396999192939495506102d8565b8980fd5b8880fd5b8680fd5b815162461bcd60e51b81526020818601526012602482015271149bdd5b99081b9bdd08199a5b9a5cda195960721b6044820152606490fd5b90503861029e565b9150503d8087833e6105478183610e4c565b8101610140828203126104f15781519067ffffffffffffffff918281116104ed5781610574918501611112565b5060208301518281116104ed578161058d918501611112565b50848301519182116105d2576105a4918301611112565b506105b160c08201611154565b6105ca6101206105c360e08501611154565b9301611161565b509038610297565b8780fd5b83513d88823e3d90fd5b5162461bcd60e51b8152602081840152602560248201527f4f6e6c7920696e697469616c20726166666c65732063616e2062652072657374604482015264185c9d195960da1b6064820152608490fd5b5162461bcd60e51b81526020818401526016602482015275506179206578616374206372656174696f6e2066656560501b6044820152606490fd5b50503461012657816003193601126101265751478152602090f35b5050346101265781600319360112610126576020906003549051908152f35b5050346101265780600319360112610126576106bf610ed6565b6001600160a01b031682526007602052808220805460243593908410156106fb57506020926106ed91610eec565b91905490519160031b1c8152f35b80fd5b919050346101ed5760203660031901126101ed577f5de302eeb1c80d4fb0c0953b692353f09ddf431411b8eb2034d5e85769561912913561073d610f1a565b600354908060035582519182526020820152a180f35b50503461012657816003193601126101265760207f62e78cea01bee320cd4e420270b5ea74000d11b0c9f74754ebdbfc544b05a25891610791610f1a565b610799611075565b835460ff60a01b1916600160a01b17845551338152a180f35b50503461012657816003193601126101265760025490516001600160a01b039091168152602090f35b9050346101ed57826003193601126101ed576107f5610f1a565b82549060ff8260a01c161561083b575060ff60a01b19168255513381527f5db9ee0a495bf2e6ff9c91a7834c1ba4fdd244a5e8aa4e537bd38aeae4b073aa90602090a180f35b606490602084519162461bcd60e51b8352820152601460248201527314185d5cd8589b194e881b9bdd081c185d5cd95960621b6044820152fd5b505034610126578160031936011261012657905490516001600160a01b039091168152602090f35b83346106fb57806003193601126106fb576108b6610f1a565b80546001600160a01b03198116825581906001600160a01b03167f8be0079c531659141344cd1fd0a4f28419497f9722a3daafe3b4186f6b6457e08280a380f35b9050346101ed57826003193601126101ed5760209250549051908152f35b5050346101265781600319360112610126576020906005549051908152f35b50503461012657816003193601126101265760ff6020925460a01c1690519015158152f35b919050346101ed57826003193601126101ed57610974610f1a565b61097c6110bc565b478015610a065783808080938160055560018060a01b038254165af13d15610a01573d6109a881610e6e565b906109b584519283610e4c565b81528460203d92013e5b156109cc57826001805580f35b906020606492519162461bcd60e51b8352820152600f60248201526e15da5d1a191c985dc819985a5b1959608a1b6044820152fd5b6109bf565b815162461bcd60e51b815260208185015260136024820152724e6f206665657320746f20776974686472617760681b6044820152606490fd5b8284346106fb57602090816003193601126106fb5782906001600160a01b03610a66610ed6565b16815260078352818120908251808584549182815201908194845286842090845b818110610ad85750505081610a9d910382610e4c565b83519485948186019282875251809352850193925b828110610ac157505050500390f35b835185528695509381019392810192600101610ab2565b825484529288019260019283019201610a87565b919050346101ed5760203660031901126101ed57817fc43bb2951b8e43e9bdade8186927ba82e3b20eef3c7fd691d9314d06403cbe739235610b2c610f1a565b808254925582519182526020820152a180f35b919050346101ed57826003193601126101ed576002548151638ce3afa760e01b81529260209184919082906001600160a01b03165afa918215610bc4578392610b8d575b6020838351908152f35b9091506020813d8211610bbc575b81610ba860209383610e4c565b810103126101ed5760209250519038610b83565b3d9150610b9b565b81513d85823e3d90fd5b92915036600319016101008112610d7b57608013610e1657610bef83610e1a565b8035835260209160243583850152604435818501526060840160643581526084359467ffffffffffffffff958681116105d257610c2f9036908601610e8a565b9360a4358781116104ed57610c479036908301610e8a565b9660c4359081116104ed57610c5f9036908301610e8a565b92610c68611075565b610c706110bc565b6003543403610dd3578251825411610d905760e43590526002548451639669376d60e01b815297879489946001600160a01b039093169385938c938593610cbc9390928c918601610fba565b03925af1938415610d86578594610d33575b507f5df138ce6a81ce22a4a71a4c74cca54ccdff1602cf02a897002a1f539b7c78b691610d299185875260068552808720336bffffffffffffffffffffffff60a01b8254161790553387526007855261038e86828920611018565b0390a36001805580f35b9093508281813d8311610d7f575b610d4b8183610e4c565b81010312610d7b5751927f5df138ce6a81ce22a4a71a4c74cca54ccdff1602cf02a897002a1f539b7c78b6610cce565b8480fd5b503d610d41565b81513d87823e3d90fd5b845162461bcd60e51b8152808301889052601760248201527f5469636b6574203c206d696e5469636b657450726963650000000000000000006044820152606490fd5b845162461bcd60e51b8152808301889052601b60248201527f4d75737420706179206578616374206372656174696f6e2066656500000000006044820152606490fd5b8380fd5b6080810190811067ffffffffffffffff821117610e3657604052565b634e487b7160e01b600052604160045260246000fd5b90601f8019910116810190811067ffffffffffffffff821117610e3657604052565b67ffffffffffffffff8111610e3657601f01601f191660200190565b81601f82011215610ed157803590610ea182610e6e565b92610eaf6040519485610e4c565b82845260208383010111610ed157816000926020809301838601378301015290565b600080fd5b600435906001600160a01b0382168203610ed157565b8054821015610f045760005260206000200190600090565b634e487b7160e01b600052603260045260246000fd5b6000546001600160a01b03163303610f2e57565b606460405162461bcd60e51b815260206004820152602060248201527f4f776e61626c653a2063616c6c6572206973206e6f7420746865206f776e65726044820152fd5b60005b838110610f855750506000910152565b8181015183820152602001610f75565b90602091610fae81518092818552858086019101610f72565b601f01601f1916010190565b92610ff961101595936060611007948051885260208101516020890152604081015160408901520151606087015260e0608087015260e0860190610f95565b9084820360a0860152610f95565b9160c0818403910152610f95565b90565b805468010000000000000000811015610e365761103a91600182018155610eec565b819291549060031b91821b91600019901b1916179055565b9190820180921161105f57565b634e487b7160e01b600052601160045260246000fd5b60ff60005460a01c1661108457565b60405162461bcd60e51b815260206004820152601060248201526f14185d5cd8589b194e881c185d5cd95960821b6044820152606490fd5b6002600154146110cd576002600155565b60405162461bcd60e51b815260206004820152601f60248201527f5265656e7472616e637947756172643a207265656e7472616e742063616c6c006044820152606490fd5b81601f82011215610ed157805161112881610e6e565b926111366040519485610e4c565b81845260208284010111610ed1576110159160208085019101610f72565b51908115158203610ed157565b51906001600160a01b0382168203610ed15756fea26469706673582212206762bcd79b6600d4ee9eb2992b468ee8a5f2a20a67f609e0b529f9eb42be529d64736f6c63430008140033",
  "immutableReferences": {},
  "source": "// SPDX-License-Identifier: MIT\r\npragma solidity ^0.8.20;\r\n\r\nimport \"@openzeppelin/contracts/access/Ownable.sol\";\r\nimport \"@openzeppelin/contracts/security/Pausable.sol\";\r\nimport \"@openzeppelin/contracts/security/ReentrancyGuard.sol\";\r\nimport \"./Raffle.sol\";\r\n\r\n/**\r\n * @title RaffleFactory\r\n * @notice A factory contract that creates single-winner raffles in `MultiRaffle`.\r\n *         Users pay a creationFee to spawn a new raffle, and each raffle must\r\n *         have a ticketSize >= minTicketPrice.\r\n */\r\ncontract RaffleFactory is Ownable, Pausable, ReentrancyGuard {\r\n    \r\n    /// @notice The underlying raffle engine (MultiRaffle).\r\n    MultiRaffle public multiRaffle;\r\n\r\n    /// @notice Fee to pay when creating a new raffle (in wei).\r\n    uint256 public creationFee;\r\n\r\n    /// @notice Minimum ticket price any raffle must use.\r\n    uint256 public minTicketPrice;\r\n\r\n    /// @notice Total fees collected so far (in wei).\r\n    uint256 public totalFeesCollected;\r\n\r\n    /// @dev raffleId => who created it\r\n    mapping(uint256 => address) public raffleCreator;\r\n\r\n    /// @dev user => array of raffleIds they created\r\n    mapping(address => uint256[]) public rafflesCreatedBy;\r\n\r\n    uint256 public constant SEED_COUNT = 6;\r\n\r\n    event FactoryRaffleCreated(\r\n        address indexed creator,\r\n        uint256 indexed raffleId,\r\n        string raffleName\r\n    );\r\n\r\n    event FactoryRaffleRestarted(uint256 indexed oldId, uint256 indexed newId);\r\n    event CreationFeeUpdated(uint256 oldFee, uint256 newFee);\r\n    event MinTicketPriceUpdated(uint256 oldPrice, uint256 newPrice);\r\n  \r\n\r\n\r\n    /**\r\n     * @param _multiRaffle    The deployed MultiRaffle contract\r\n     * @param _creationFee    The fee (in wei) for creating a new raffle\r\n     * @param _minTicketPrice The minimum ticket price (in wei) any raffle must have\r\n     */\r\n    constructor(\r\n        MultiRaffle _multiRaffle,\r\n        uint256 _creationFee,\r\n        uint256 _minTicketPrice\r\n    ) {\r\n        require(address(_multiRaffle) != address(0), \"Invalid MultiRaffle\");\r\n        multiRaffle    = _multiRaffle;\r\n        creationFee    = _creationFee;\r\n        minTicketPrice = _minTicketPrice;\r\n    }\r\n\r\n    /**\r\n     * @notice Create a new raffle by paying the `creationFee`.\r\n     *         Must have `_settings.ticketSize >= minTicketPrice`.\r\n     * @param _settings       The RaffleSettings struct for single-winner\r\n     * @param _raffleName     Raffle metadata name\r\n     * @param _raffleImage    Raffle image URI (ipfs:// or http)\r\n     * @param _raffleDesc     Raffle description\r\n     * @param _raffleDuration Duration in seconds\r\n     */\r\n    function createNewRaffle(\r\n        MultiRaffle.RaffleSettings memory _settings,\r\n        string memory _raffleName,\r\n        string memory _raffleImage,\r\n        string memory _raffleDesc,\r\n        uint256 _raffleDuration\r\n    )\r\n        external\r\n        payable\r\n        whenNotPaused\r\n        nonReentrant\r\n    {\r\n        // 1) Must pay exactly creationFee\r\n        require(msg.value == creationFee, \"Must pay exact creation fee\");\r\n\r\n        // 2) Enforce minimum ticket price\r\n        require(_settings.ticketSize >= minTicketPrice, \"Ticket < minTicketPrice\");\r\n\r\n        // 3) Overwrite raffleDuration in the struct\r\n        _settings.raffleDuration = _raffleDuration;\r\n\r\n        // 4) Call MultiRaffle to create the raffle (only works if factory is set in MultiRaffle)\r\n        uint256 newRaffleId = multiRaffle.createRaffle(\r\n            _settings,\r\n            _raffleName,\r\n            _raffleImage,\r\n            _raffleDesc\r\n        );\r\n\r\n        // 5) Track who created it\r\n        raffleCreator[newRaffleId] = msg.sender;\r\n        rafflesCreatedBy[msg.sender].push(newRaffleId);\r\n\r\n        // 6) Account for fees\r\n        totalFeesCollected += msg.value;\r\n\r\n        // 7) Emit event\r\n        emit FactoryRaffleCreated(msg.sender, newRaffleId, _raffleName);\r\n    }\r\n\r\n    /**\r\n     * @notice Withdraw all accumulated creation fees.\r\n     */\r\n    function withdrawFees() external onlyOwner nonReentrant {\r\n        uint256 bal = address(this).balance;\r\n        require(bal > 0, \"No fees to withdraw\");\r\n\r\n        totalFeesCollected = 0;\r\n\r\n        (bool ok, ) = payable(owner()).call{ value: bal }(\"\");\r\n        require(ok, \"Withdraw failed\");\r\n    }\r\n\r\n    /**\r\n     * @notice Update the creationFee (owner only).\r\n     * @param newFee The new creation fee in wei.\r\n     */\r\n    function setCreationFee(uint256 newFee) external onlyOwner {\r\n        uint256 old = creationFee;\r\n        creationFee = newFee;\r\n        emit CreationFeeUpdated(old, newFee);\r\n    }\r\n\r\n    /**\r\n     * @notice Update the minTicketPrice (owner only).\r\n     * @param newPrice The new minimum ticket price in wei.\r\n     */\r\n    function setMinTicketPrice(uint256 newPrice) external onlyOwner {\r\n        uint256 old = minTicketPrice;\r\n        minTicketPrice = newPrice;\r\n        emit MinTicketPriceUpdated(old, newPrice);\r\n    }\r\n\r\n    /**\r\n     * @notice Pause the factory (owner only).\r\n     *         No new raffles can be created when paused.\r\n     */\r\n    function pauseFactory() external onlyOwner {\r\n        _pause();\r\n    }\r\n\r\n    /**\r\n     * @notice Unpause the factory (owner only).\r\n     */\r\n    function unpauseFactory() external onlyOwner {\r\n        _unpause();\r\n    }\r\n\r\n     /** \r\n     * @notice Restart only a migrationseeded raffle once its finished\r\n     */\r\n     function restartRaffle(uint256 oldId, uint256 newDuration)\r\n    external\r\n    payable\r\n    whenNotPaused\r\n    nonReentrant\r\n    onlyOwner\r\n{\r\n    require(msg.value == creationFee, \"Pay exact creation fee\");\r\n    require(oldId < SEED_COUNT, \"Only initial raffles can be restarted\");\r\n\r\n    // 1) check old round finished\r\n    (, , , , , , bool ended, bool winnerPicked, , ) = multiRaffle.getRaffleData(oldId);\r\n    require(ended && winnerPicked, \"Round not finished\");\r\n\r\n    // 2) pull only the six immutable settings from the 15field struct\r\n    (\r\n      string memory name,\r\n      string memory image,\r\n      string memory desc,\r\n      uint256 ticketSize,\r\n      uint256 numberRange,\r\n      uint256 houseTake,\r\n      , , , , , , , , \r\n    ) = multiRaffle.raffles(oldId);\r\n\r\n    // 3) build new settings\r\n    MultiRaffle.RaffleSettings memory s = MultiRaffle.RaffleSettings({\r\n        ticketSize:     ticketSize,\r\n        numberRange:    numberRange,\r\n        houseTake:      houseTake,\r\n        raffleDuration: newDuration\r\n    });\r\n\r\n    // 4) spawn the clone\r\n    uint256 newId = multiRaffle.createRaffle(s, name, image, desc);\r\n\r\n    // 5) record creator & fees\r\n    raffleCreator[newId] = msg.sender;\r\n    rafflesCreatedBy[msg.sender].push(newId);\r\n    totalFeesCollected += msg.value;\r\n\r\n    emit FactoryRaffleCreated(msg.sender, newId, name);\r\n    emit FactoryRaffleRestarted(oldId, newId);\r\n}\r\n\r\n\r\n    // --------------------------------------------------------\r\n    // VIEW FUNCTIONS\r\n    // --------------------------------------------------------\r\n\r\n    /**\r\n     * @notice Return how many raffles exist in the MultiRaffle engine.\r\n     */\r\n    function getRaffleCount() external view returns (uint256) {\r\n        return multiRaffle.getRafflesLength();\r\n    }\r\n\r\n    /**\r\n     * @notice Return all raffleIds created by a user.\r\n     */\r\n    function getRafflesCreatedBy(address user) external view returns (uint256[] memory) {\r\n        return rafflesCreatedBy[user];\r\n    }\r\n\r\n    /**\r\n     * @notice Return the current ETH balance of this factory (the creation fees).\r\n     */\r\n    function getFactoryBalance() external view returns (uint256) {\r\n        return address(this).balance;\r\n    }\r\n}\r\n",
  "sourcePath": "C:\\Users\\Tommy\\Documents\\raffle\\myTruffle\\contracts\\RaffleFactory.sol",
  "compiler": {
    "name": "solc",
    "version": "0.8.20+commit.a1b79de6.Emscripten.clang"
  },
  "schemaVersion": "3.4.16",
  "updatedAt": "2025-05-13T20:24:00.993Z",
  "networkType": "ethereum",
  "devdoc": {
    "events": {
      "Paused(address)": {
        "details": "Emitted when the pause is triggered by `account`."
      },
      "Unpaused(address)": {
        "details": "Emitted when the pause is lifted by `account`."
      }
    },
    "kind": "dev",
    "methods": {
      "constructor": {
        "params": {
          "_creationFee": "The fee (in wei) for creating a new raffle",
          "_minTicketPrice": "The minimum ticket price (in wei) any raffle must have",
          "_multiRaffle": "The deployed MultiRaffle contract"
        }
      },
      "createNewRaffle((uint256,uint256,uint256,uint256),string,string,string,uint256)": {
        "params": {
          "_raffleDesc": "Raffle description",
          "_raffleDuration": "Duration in seconds",
          "_raffleImage": "Raffle image URI (ipfs:// or http)",
          "_raffleName": "Raffle metadata name",
          "_settings": "The RaffleSettings struct for single-winner"
        }
      },
      "owner()": {
        "details": "Returns the address of the current owner."
      },
      "paused()": {
        "details": "Returns true if the contract is paused, and false otherwise."
      },
      "renounceOwnership()": {
        "details": "Leaves the contract without owner. It will not be possible to call `onlyOwner` functions. Can only be called by the current owner. NOTE: Renouncing ownership will leave the contract without an owner, thereby disabling any functionality that is only available to the owner."
      },
      "setCreationFee(uint256)": {
        "params": {
          "newFee": "The new creation fee in wei."
        }
      },
      "setMinTicketPrice(uint256)": {
        "params": {
          "newPrice": "The new minimum ticket price in wei."
        }
      },
      "transferOwnership(address)": {
        "details": "Transfers ownership of the contract to a new account (`newOwner`). Can only be called by the current owner."
      }
    },
    "stateVariables": {
      "raffleCreator": {
        "details": "raffleId => who created it"
      },
      "rafflesCreatedBy": {
        "details": "user => array of raffleIds they created"
      }
    },
    "title": "RaffleFactory",
    "version": 1
  },
  "userdoc": {
    "kind": "user",
    "methods": {
      "createNewRaffle((uint256,uint256,uint256,uint256),string,string,string,uint256)": {
        "notice": "Create a new raffle by paying the `creationFee`.         Must have `_settings.ticketSize >= minTicketPrice`."
      },
      "creationFee()": {
        "notice": "Fee to pay when creating a new raffle (in wei)."
      },
      "getFactoryBalance()": {
        "notice": "Return the current ETH balance of this factory (the creation fees)."
      },
      "getRaffleCount()": {
        "notice": "Return how many raffles exist in the MultiRaffle engine."
      },
      "getRafflesCreatedBy(address)": {
        "notice": "Return all raffleIds created by a user."
      },
      "minTicketPrice()": {
        "notice": "Minimum ticket price any raffle must use."
      },
      "multiRaffle()": {
        "notice": "The underlying raffle engine (MultiRaffle)."
      },
      "pauseFactory()": {
        "notice": "Pause the factory (owner only).         No new raffles can be created when paused."
      },
      "restartRaffle(uint256,uint256)": {
        "notice": "Restart only a migrationseeded raffle once its finished"
      },
      "setCreationFee(uint256)": {
        "notice": "Update the creationFee (owner only)."
      },
      "setMinTicketPrice(uint256)": {
        "notice": "Update the minTicketPrice (owner only)."
      },
      "totalFeesCollected()": {
        "notice": "Total fees collected so far (in wei)."
      },
      "unpauseFactory()": {
        "notice": "Unpause the factory (owner only)."
      },
      "withdrawFees()": {
        "notice": "Withdraw all accumulated creation fees."
      }
    },
    "notice": "A factory contract that creates single-winner raffles in `MultiRaffle`.         Users pay a creationFee to spawn a new raffle, and each raffle must         have a ticketSize >= minTicketPrice.",
    "version": 1
  }
}